:020000040800F2
:10000000005000209D18000895060008970600087B
:10001000990600089B0600089D06000800000000E5
:100020000000000000000000000000009F06000823
:10003000A106000800000000A3060008A5060008AD
:10004000E5180008E5180008E5180008E51800089C
:10005000E5180008E5180008BD060008E5180008C6
:10006000E5180008E5180008E5180008E51800087C
:10007000E5180008E5180008E5180008E51800086C
:10008000E5180008E5180008E5180008E51800085C
:10009000E5180008E5180008E5180008E51800084C
:1000A000E5180008E5180008E5180008E51800083C
:1000B000AD060008E5180008E5180008E518000876
:1000C000E5180008E5180008E5180008E51800081C
:1000D000E5180008E5180008E5180008E51800080C
:1000E000E5180008E5180008E51800080000000001
:1000F0000000000000000000000000000000000000
:0C01000000000000000000005FF808F1A3
:10010C0070B5860747D0541E002A3ED00346CAB2AB
:10011C0001E0013C39D303F8012B9D07F9D1032CE5
:10012C002CD9CDB205EB05250F2C1A4605EB054550
:10013C0034D9A4F1100C2CF00F0603F1100EB644B8
:10014C004FEA1C1CC2E90055C2E902551032724537
:10015C00F8D10CF1010214F00C0F03EB021204F0B5
:10016C000F0C13D0ACF1040323F00303043313443A
:10017C0042F8045B9342FBD10CF003042CB1C9B2DE
:10018C001C4403F8011BA342FBD170BD644613460B
:10019C00002CF4D1F9E703461446C0E7A446E1E786
:1001AC0070B50F4B0F4DAB42A3EB050607D00024E7
:1001BC00B61055F8043B01349847A642F9D801F023
:1001CC008DFB094D094B5E1BAB424FEAA60606D0D0
:1001DC00002455F8043B01349847A642F9D870BD69
:1001EC0024190008241900082419000828190008EB
:1001FC0010B5054C237833B9044B13B10448AFF355
:10020C0000800123237010BD1000002000000000AE
:10021C00E818000808B5034B1BB103490348AFF3BA
:10022C00008008BD0000000014000020E818000841
:10023C00014B188880B2704700FC00082DE9F04192
:10024C0086B000240294039404940594234B9A6979
:10025C0042F010029A619A6902F010020092009A20
:10026C009A6942F004029A619B6903F004030193BA
:10027C00019BDFF86C8022464FF40051404601F0A0
:10028C0014F9184E22460221304601F00EF94FF4B3
:10029C00005302930125039504940227059702A9A4
:1002AC00404600F0EDFF02950F4B0393049502A915
:1002BC00304600F0E5FF029703950494059702A9D8
:1002CC00304600F0DDFF22462146062001F048F9B9
:1002DC00062001F055F906B0BDE8F081001002408F
:1002EC00001001400008014000003110F0B587B04B
:1002FC00054601F0ADF9002401940294084F0497CF
:10030C000126059601A902A801F06EFA2A46234699
:10031C003946304601F0F4F901F0B4F907B0F0BDFC
:10032C0000FC000808B50368B3F1804F00D008BD8D
:10033C001E4B1B7863B91E4B1B78D3B900224FF4AC
:10034C0000511C4801F0B1F8194B01221A70EEE76C
:10035C00194B1A6801321A601B68042BE7D9002369
:10036C00124A1370144A1360144A1370104A137013
:10037C00DDE701224FF400510E4801F096F80C4BCA
:10038C0000221A700D4A13780133DBB21370127805
:10039C00D2B20B4B1B78DBB29A42C8D3034B01226F
:1003AC001A70054B00221A60C1E700BF4000002004
:1003BC003A000020001001403C00002041000020C9
:1003CC0000000020012800D0704710B500F040FC60
:1003DC0004460121154801F061F878B9144B1B68EB
:1003EC00E31A312B09D9124B1C60124B01221A70E3
:1003FC00114B1C60114B00221A7010BD0D4B1B7859
:10040C00002BFAD00C4B1B68E41A0A4B00221A7012
:10041C000A4B1B7833B940F6B7339C4202D8084BD1
:10042C0001221A70054B00221A70E6E70008014001
:10043C002C00002038000020340000203000002068
:10044C003900002072B6FEE700B587B00023029396
:10045C000393049305930093019318484FF0804243
:10046C00026041F63F724260836040F2E732C26044
:10047C000361836100F0B8FAD0B94FF48053029352
:10048C0002A90E4800F0E8FAA0B9002300930193EA
:10049C0069460A4800F060FB70B9002201211C205B
:1004AC0001F05EF81C2001F06BF807B05DF804FB5E
:1004BC00FFF7C8FFFFF7C6FFFFF7C4FF440000209B
:1004CC0000B591B02822002106A8FFF719FE0023E1
:1004DC000193029303930493059302230693012340
:1004EC000A9310230B9306A800F0E2FB68B90F23C4
:1004FC0001930021029103910491059101A800F050
:10050C0009FE20B911B05DF804FBFFF79BFFFFF764
:10051C0099FF000038B500F07DFBFFF7D1FFFFF726
:10052C008DFEFFF791FF01214B4800F0B7FF98B10A
:10053C00FFF77EFE07282ED8421E92B2062A30D82C
:10054C00C3B2464A137000220221434800F0ADFFAB
:10055C00434800F01FF92DE0642000F07FFB0121DF
:10056C003D4800F09BFF0028E2D100F071FB0446EF
:10057C000121394800F092FF0028D9D100F068FB26
:10058C00031B40F6B7329342F2D90420334B187058
:10059C00FFF7ACFECCE70420304B1870FFF7A6FE3B
:1005AC00D1E704202D4B1870FFF7A0FECBE72D4BA5
:1005BC001B7853BB2C4B1B78002BF8D000F048FB5E
:1005CC002A4B1B68C01A40F6B7339842EFD9284B18
:1005DC001B78002BEBD10125254B1D700024214BE2
:1005EC001C7004201D4B1870FFF780FE214B1C70F3
:1005FC00214B1C70214B1C60214B1C702A464FF464
:10060C000051204800F051FFD1E7164B00221A7020
:10061C00174B1B78002BCDD1104B1B78DBB2062B64
:10062C0017D80E4B18780130C0B20C4B1870FFF76E
:10063C005DFE00230F4A13700F4A13700F4A1360AC
:10064C000F4A137001224FF400510E4800F02DFF99
:10065C00B0E70420E9E700BF0008014000000020DB
:10066C004400002039000020380000203400002015
:10067C003000002041000020400000203C00002001
:10068C003A00002000100140FEE7FEE7FEE7FEE71F
:10069C00FEE770477047704708B500F0CDFA08BD0B
:1006AC0008B5024800F0AEF808BD00BF44000020B9
:1006BC0008B5012000F000FF08BD000082B00E4B11
:1006CC009A6942F001029A619A6902F00102009261
:1006DC00009ADA6942F08052DA61DB6903F08053E8
:1006EC000193019B054A536823F0E06343F00073C8
:1006FC00536002B0704700BF001002400000014080
:10070C000368B3F1804F00D0704700B583B003F598
:10071C000433DA6942F00102DA61DB6903F00103A8
:10072C000193019B002211461C2000F019FF1C2094
:10073C0000F026FF03B05DF804FB10B4036A046AF2
:10074C0024F001040462846924F0F00C4CEA0212D7
:10075C0023F00A030B438261036210BC704710B490
:10076C00036A046A24F010040462846924F4704C53
:10077C004CEA023223F0A00343EA011382610362C4
:10078C0010BC7047836823F070030B4343F00703DE
:10079C008360704790F83D30DBB2012B27D10223E8
:1007AC0080F83D300268D36843F00103D3600368DE
:1007BC00114A934210D0B3F1804F0DD0A2F5943270
:1007CC00934209D002F58062934205D01A6842F038
:1007DC0001021A60002070479A6802F00702062A8C
:1007EC0007D01A6842F001021A60002070470120FD
:1007FC0070470020704700BF002C014070477047C5
:10080C007047704770B504460368DE681D6915F0C3
:10081C00020F10D016F0020F0DD06FF002021A6109
:10082C000123037703689B6913F0030F5ED0FFF776
:10083C00E6FF0023237715F0040F12D016F0040FF7
:10084C000FD023686FF004021A6102232377236808
:10085C009B6913F4407F4FD02046FFF7D0FF002355
:10086C00237715F0080F12D016F0080F0FD023685D
:10087C006FF008021A61042323772368DB6913F0F5
:10088C00030F40D02046FFF7BAFF0023237715F063
:10089C00100F12D016F0100F0FD023686FF010024B
:1008AC001A61082323772368DB6913F4407F31D066
:1008BC002046FFF7A4FF0023237715F0010F02D089
:1008CC0016F0010F2DD115F0800F02D016F0800F0D
:1008DC002FD115F0400F02D016F0400F31D115F08A
:1008EC00200F02D016F0200F33D170BDFFF786FF1A
:1008FC002046FFF785FF9CE72046FFF77FFF204649
:10090C00FFF77EFFABE72046FFF778FF2046FFF7A7
:10091C0077FFBAE72046FFF771FF2046FFF770FF1D
:10092C00C9E723686FF001021A612046FFF7FAFC51
:10093C00C9E723686FF080021A61204600F043F982
:10094C00C7E723686FF040021A612046FFF759FF92
:10095C00C5E723686FF020021A61204600F032F9D7
:10096C00C3E7000003681F4A90420AD0B0F1804FE1
:10097C0007D0A2F59432904203D002F580629042E7
:10098C0003D123F070034A681343164A90420AD0ED
:10099C00B0F1804F07D0A2F59432904203D002F50B
:1009AC008062904203D123F44073CA68134323F04E
:1009BC0080034A69134303608B68C3620B688362CC
:1009CC00084B98420AD001234361036913F0010FCD
:1009DC0003D0036923F00103036170470B690363C0
:1009EC00F1E700BF002C014040B310B5044690F86D
:1009FC003D30F3B1022384F83D30214651F8040B0D
:100A0C00FFF7B0FF012384F8463084F83E3084F8B9
:100A1C003F3084F8403084F8413084F8423084F818
:100A2C00433084F8443084F8453084F83D3000205D
:100A3C0010BD80F83C30FFF763FEDBE70120704708
:100A4C0010B4846824F47F4C42EA03220A4342EA3D
:100A5C000C02826010BC704790F83C30012B78D0AF
:100A6C0010B50446012380F83C30022380F83D3059
:100A7C000268936823F47F4323F0770393600B6839
:100A8C00602B4CD023D8402B54D011D8202B03D022
:100A9C000AD80BB1102B05D119462068FFF772FE4E
:100AAC00002028E0012026E0302BF5D0012022E0A8
:100ABC00502B0AD1CA6849680068FFF73EFE5021E6
:100ACC002068FFF75FFE002015E0012013E0B3F56E
:100ADC00805F3AD0B3F5005F14D0702B37D1CB6860
:100AEC004A6889680068FFF7ABFF2268936843F097
:100AFC00770393600020012384F83D30002384F8B1
:100B0C003C3010BDCB684A6889680068FFF798FFD5
:100B1C002268936843F4804393600020EBE7CA6833
:100B2C0049680068FFF71BFE60212068FFF72AFE6A
:100B3C000020E0E7CA6849680068FFF7FEFD402125
:100B4C002068FFF71FFE0020D5E70020D3E7012027
:100B5C00D1E702207047000090F83C20012A2CD0ED
:100B6C0010B40346012280F83C20022280F83D207C
:100B7C0002685068946820F0700C086840EA0C0019
:100B8C0050601A680E4882420AD0B2F1804F07D0EA
:100B9C00A0F59430824203D000F58060824204D1EB
:100BAC0024F08004496821439160012283F83D20A0
:100BBC00002083F83C0010BC70470220704700BF37
:100BCC00002C01407047704710B504460E4B1A7844
:100BDC004FF47A73B3FBF2F30C4A1068B0FBF3F0EA
:100BEC0000F0DCFC68B90F2C01D901200AE00022CE
:100BFC0021464FF0FF3000F0B3FC054B1C60002089
:100C0C0000E0012010BD00BF010000200800002002
:100C1C000400002008B5074A136843F01003136062
:100C2C00032000F08BFC0F20FFF7CEFFFFF746FDF3
:100C3C00002008BD00200240034A1168034B1B78BA
:100C4C000B441360704700BF8C0000200100002093
:100C5C00014B1868704700BF8C00002038B5044663
:100C6C00FFF7F6FF0546B4F1FF3F02D0044B1B78AB
:100C7C001C44FFF7EDFF401BA042FAD338BD00BF68
:100C8C000100002082B0084B1B68084AA2FB03231A
:100C9C005B0A00FB03F3019300BF019B5A1E0192F8
:100CAC00002BF9D102B0704708000020D34D621020
:100CBC00002800F0F18170B582B00446036813F08F
:100CCC00010F2CD0994B5B6803F00C03042B1DD047
:100CDC00964B5B6803F00C03082B12D06368B3F5DA
:100CEC00803F41D0002B55D103F1804303F50433F1
:100CFC001A6822F480321A601A6822F480221A6070
:100D0C0037E08A4B5B6813F4803FE7D0874B1B6856
:100D1C0013F4003F03D06368002B00F0BF812368FD
:100D2C0013F0020F75D0814B5B6813F00C0F5FD082
:100D3C007E4B5B6803F00C03082B54D02369002B0B
:100D4C0000F08A807A4B01221A60FFF781FF05467A
:100D5C00764B1B6813F0020F75D1FFF779FF401B20
:100D6C000228F5D903209EE1704A136843F48033BE
:100D7C001360636843B3FFF76BFF05466B4B1B684F
:100D8C0013F4003FCBD1FFF763FF401B6428F5D968
:100D9C00032088E1B3F5A02F09D0644B1A6822F424
:100DAC0080321A601A6822F480221A60E1E703F19B
:100DBC008043A3F53C331A6842F480221A601A6807
:100DCC0042F480321A60D4E7FFF742FF0546574BD6
:100DDC001B6813F4003FA2D0FFF73AFF401B6428B6
:100DEC00F5D903205FE1514B5B6813F4803FA5D12B
:100DFC004E4B1B6813F0020F03D02369012B40F0FC
:100E0C004F814A4A136823F0F803616943EAC1032E
:100E1C001360236813F0080F33D0A369002B5CD048
:100E2C00434B0122C3F88024FFF712FF05463F4BCA
:100E3C005B6A13F0020F21D1FFF70AFF401B022857
:100E4C00F5D903202FE1394A136823F0F8036169BF
:100E5C0043EAC1031360DCE7354B00221A60FFF74D
:100E6C00F7FE0546314B1B6813F0020FD1D0FFF78C
:100E7C00EFFE401B0228F5D9032014E10120FFF7F7
:100E8C0001FF236813F0040F00F09680274BDB69F9
:100E9C0013F0805F34D1254BDA6942F08052DA616D
:100EAC00DB6903F080530193019B0125214B1B68E7
:100EBC0013F4807F26D0E368012B3DD0002B53D157
:100ECC0003F1804303F504331A6A22F001021A621B
:100EDC001A6A22F004021A6233E0154B0022C3F89E
:100EEC008024FFF7B5FE0546104B5B6A13F0020F2A
:100EFC00C7D0FFF7ADFE401B0228F5D90320D2E086
:100F0C000025D3E70B4A136843F480731360FFF793
:100F1C009FFE0646074B1B6813F4807FCBD1FFF76F
:100F2C0097FE801B6428F5D90320BCE0001002401A
:100F3C0000004242007000405F4A136A43F0010314
:100F4C001362E36833B3FFF783FE06465A4B1B6A02
:100F5C0013F0020F2FD1FFF77BFE801B41F2883379
:100F6C009842F3D903209EE0052B09D0524B1A6A04
:100F7C0022F001021A621A6A22F004021A62E0E7F5
:100F8C004D4B1A6A42F004021A621A6A42F00102CC
:100F9C001A62D6E7FFF75CFE0646474B1B6A13F056
:100FAC00020F08D0FFF754FE801B41F288339842A1
:100FBC00F3D9032077E0E5B9E369002B72D03E4A00
:100FCC00526802F00C02082A56D0022B17D03B4B69
:100FDC0000221A66FFF73CFE0446374B1B6813F0E1
:100FEC00007F47D0FFF734FE001B0228F5D9032001
:100FFC0059E0314AD36923F08053D361DCE72F4B9E
:10100C0000221A66FFF724FE05462B4B1B6813F0D3
:10101C00007F06D0FFF71CFE401B0228F5D90320E9
:10102C0041E0236AB3F5803F1AD023494B6823F47F
:10103C007413226A606A024313434B601F4B0122F4
:10104C001A66FFF705FE04461B4B1B6813F0007F66
:10105C000ED1FFF7FDFD001B0228F5D9032022E07D
:10106C00154A536823F40033A1680B435360DCE743
:10107C00002018E0002016E0012B16D00E4B5B6808
:10108C0003F48031226A914211D103F47013626A25
:10109C0093420ED1002006E001207047012002E0AF
:1010AC00012000E0002002B070BD0120FBE7012010
:1010BC00F9E70120F7E700BF0010024000004242B0
:1010CC000F4B5B6803F00C02082A01D00D487047E7
:1010DC00C3F383420C49885C13F4803F0BD0084B5C
:1010EC005B68C3F34043094AD35C064A02FB00F039
:1010FC00B0FBF3F07047064B03FB00F0704700BFEA
:10110C000010024000127A000419000800190008AF
:10111C0000093D00002800F0A08070B50D46044683
:10112C00524B1B6803F007038B420BD24F4A1368D8
:10113C0023F007030B431360136803F007038B4280
:10114C0040F08D80236813F0020F17D013F0040FBA
:10115C0004D0474A536843F4E0635360236813F0A8
:10116C00080F04D0424A536843F460535360404A1A
:10117C00536823F0F003A1680B435360236813F00A
:10118C00010F31D06368012B20D0022B25D0384AB7
:10119C00126812F0020F64D035494A6822F003023B
:1011AC0013434B60FFF754FD0646314B5B6803F06D
:1011BC000C036268B3EB820F16D0FFF749FD801B5E
:1011CC0041F288339842F0D9032045E0284A12684E
:1011DC0012F4003FE0D101203EE0254A126812F0E3
:1011EC00007FD9D1012037E0204B1B6803F00703A7
:1011FC00AB420AD91D4A136823F007032B43136033
:10120C00136803F00703AB422DD1236813F0040FCE
:10121C0006D0174A536823F4E063E1680B4353602C
:10122C00236813F0080F07D0114A536823F4605356
:10123C00216943EAC1035360FFF742FF0C4B5B6823
:10124C00C3F303130B4AD35CD8400B4B18600B4B06
:10125C001868FFF7B9FC002070BD01207047012011
:10126C00FAE70120F8E70120F6E700BF0020024072
:10127C00001002401419000808000020040000208F
:10128C0070B582B00024A446A1E07E4DAB4214D0D0
:10129C000CD8A5F58015AB420FD005F57025AB42E7
:1012AC000BD0A5F58015AB4210D106E0764DAB42C4
:1012BC0003D005F58035AB4208D18B68002B50D09C
:1012CC00012B49D04261082400E0CC68BEF1FF0F2D
:1012DC0049D806464FEA8C0233680F25954023EA1D
:1012EC00050304FA02F2134333604B6813F0805F7A
:1012FC006BD0664B9A6942F001029A619B6903F0CC
:10130C0001030193019B4FEA9C02951C604B53F81F
:10131C0025600CF00305AD000F23AB4026EA030655
:10132C005C4B984226D003F58063984200F08C8089
:10133C0003F58063984200F0898003F5806398423E
:10134C0016D0042317E0CC680434BFE7CC6808340B
:10135C00BCE7CC680C34B9E702610824B6E700247A
:10136C00B4E70424B2E7061DACF108029200B3E71F
:10137C00032300E00023AB4033430232444D45F8D5
:10138C0022304B6813F4801F62D0434A936843EABF
:10139C000E0393604B6813F4001F5FD03E4AD36872
:1013AC0043EA0E03D3604B6813F4003F5CD03A4A17
:1013BC00536843EA0E0353604B6813F4803F59D0D3
:1013CC00354A136843EA0E0313600CF1010C0B68E9
:1013DC0033FA0CF254D0012202FA0CF203EA020E98
:1013EC0032EA0303F1D14B68122B3FF64EAF122BAE
:1013FC003FF66CAF01A555F823F000BFC7120008EB
:10140C00D7120008591300086B130008D9120008F2
:10141C00D9120008D9120008D9120008D9120008F4
:10142C00D9120008D9120008D9120008D9120008E4
:10143C00D9120008D9120008D9120008D9120008D4
:10144C00531300085F130008012394E7022392E76B
:10145C00114A936823EA0E0393609BE70E4AD36804
:10146C0023EA0E03D3609EE70B4A536823EA0E036C
:10147C005360A1E7084A136823EA0E031360A4E73C
:10148C0002B070BD000022100000311000100240AC
:10149C00000001400008014000040140836819422B
:1014AC0001D001207047002070470AB101617047DC
:1014BC00090401617047000008B5054B5B690342E4
:1014CC0000D108BD024B5861FEF77CFFF9E700BF65
:1014DC0000040140002808DB0901C9B200F160409A
:1014EC0000F5614080F80013704700F00F0009010F
:1014FC00C9B2014B1954704714ED00E000B500F06F
:10150C000700C0F1070CBCF1040F28BF4FF0040C0E
:10151C00031D062B0FD9C31E4FF0FF3E0EFA0CF025
:10152C0021EA000199400EFA03FE22EA0E0241EA7A
:10153C0002005DF804FB0023EEE70000074AD368C5
:10154C0023F4E0631B041B0C000200F4E060034373
:10155C0043F0BF6343F40033D360704700ED00E009
:10156C0010B50446054BD868C0F30220FFF7C6FF40
:10157C0001462046FFF7AEFF10BD00BF00ED00E0B6
:10158C00002807DB00F01F02400901239340024AA8
:10159C0042F82030704700BF00E100E00138B0F1A4
:1015AC00807F0BD24FF0E0235861054AF02182F87E
:1015BC0023100020986107221A61704701207047A0
:1015CC0000ED00E0044B0022DA61044A136943F099
:1015DC00010313610180704790000020002002403D
:1015EC00194BDB6813F0100305D0184AD36943F08C
:1015FC000203D3611023144AD26812F0040F06D0F0
:10160C001249CA6942F00102CA6143F004030E4A4E
:10161C00D26912F0010F09D00C49CA6942F00402D8
:10162C00CA610949CA6922F00102CA6140F2011279
:10163C00934202D0044AD3607047034AD36923F023
:10164C000103D361704700BF0020024090000020CE
:10165C000A4B1B6913F0800F0BD0084B084A5A60D9
:10166C0002F188325A601B6913F0800F03D10020FD
:10167C007047002070470120704700BF00200240D7
:10168C0023016745034A136943F08003136100206B
:10169C00704700BF0020024038B50446FFF7D8FA67
:1016AC000546164BDB6813F0010F0AD0B4F1FF3F6F
:1016BC00F7D024B1FFF7CCFA401BA042F1D903209C
:1016CC001BE00E4BDB6813F0200F02D00B4B2022DB
:1016DC00DA600A4BDB6813F0100F0BD1074BDB6998
:1016EC0013F0010F06D1054BDB6813F0040F01D189
:1016FC00002002E0FFF774FF012038BD00200240FB
:10170C002DE9F8431E46244B1B7E012B41D0044689
:10171C000F469046204B01221A764CF25030FFF7C0
:10172C00BBFF034678BB012C08D0022C03D04FF032
:10173C0004091C4607E04FF00209FAE74FF00109D3
:10174C00F7E70134E4B24C451DD22101C1F120026E
:10175C00A1F1200328FA01F106FA02F2114326FA4C
:10176C0003F3194389B207EB4400FFF72BFF4CF24C
:10177C005030FFF791FF094B1D6925F001051D61E4
:10178C0003460028DDD0044A002111761846BDE836
:10179C00F8830223FAE700BF9000002000200240EB
:1017AC00064B0022DA61064B1A6942F004021A61F8
:1017BC001A6942F040021A61704700BF9000002085
:1017CC0000200240064B0022DA61064B1A6942F0F7
:1017DC0002021A6158611A6942F040021A6170479C
:1017EC009000002000200240264B1B7E012B46D08F
:1017FC0070B505460E46234B01221A760368022B60
:10180C0020D04CF25030FFF747FF90BB4FF0FF3326
:10181C003360AC680121EA68AB6803EB8223A34216
:10182C0028D92046FFF7CEFF4CF25030FFF734FF9B
:10183C00154A136923F0020313610146B8B904F584
:10184C008064E8E74CF25030FFF726FF08B1012125
:10185C0010E00120FFF7A4FF4CF25030FFF71CFF03
:10186C000146094A136923F00403136102E0346052
:10187C0000E00121034B00221A76084670BD0221BC
:10188C00084670479000002000200240704700007E
:10189C00FFF7FCFF0B480C490C4A002302E0D4581C
:1018AC00C4500433C4188C42F9D3094A094C0023A0
:1018BC0001E013600432A242FBD3FEF771FCFEF789
:1018CC0029FE7047000000200C0000202C19000895
:1018DC0010000020B0000020FEE70000F8B500BFAB
:1018EC00F8BC08BC9E467047F8B500BFF8BC08BCF5
:0418FC009E4670474D
:101900000102000002030405060708090A0B0C0D7A
:101910000E0F101000000000000000000102030480
:0419200006070809A5
:041924002102000894
:04192800FD010008B5
:0C192C00040100001000000000127A000E
:040000050800189D3A
:00000001FF
